S01500004E544967726164756174696F6E2E73726563F6
S11300000C942A000C94BD050C94E4050C940B0686
S11300100C9447000C9447000C9447000C94470040
S11300200C9447000C9447000C9459060C948206D7
S11300300C9447000C9447000C9447000C94470020
S11300400C9447000C9447000C9447000C94470010
S11300500C94470011241FBECFE5D8E0DEBFCDBF0E
S113006011E0A0E6B0E0E4E0F4E102C005900D92F6
S1130070AA35B107D9F721E0AAE5B1E001C01D9284
S1130080AA36B207E1F70E9468000C94000A0C94A7
S1130090000081E080935D0108950E94E8030E94BE
S11300A0EF030E94F303089580E00E944D009C0139
S11300B0A4EFB1E00E940707DC01CB01072E7AE030
S11300C0B695A795979587957A95D1F7702D08954C
S11300D00E94C9030E94290380E895E20E94B406A5
S11300E00E9436068CE683BF80E00E94570689B7DB
S11300F08C7F89BF8AB18F778AB986B1877F86B9A9
S113010060E081E00E94BA0361E081E00E94BA03EA
S113011062E081E00E94BA030E945C0241E063E075
S113012081E00E940D0460E080E00E94FD0340E055
S113013062E083E00E940D0460E089E490E00E94A4
S1130140A60561E080E00E9455050E94320660E049
S113015081E00E94C20310925C0161E081E00E9490
S1130160BE0362E081E00E94C2030E9468028091A3
S11301705D01813009F063C062E083E00E94F30412
S1130180813009F045C061E00E94C20362E081E071
S11301900E94BE030E94620280E00E94570660E053
S11301A081E00E94C20310925C0180915B01811185
S11301B025C00E94890360E080E00E940D0384E66C
S11301C090E00E947C0360E081E00E940D0385E7DB
S11301D090E00E947C0360E082E00E940D038AE8C4
S11301E090E00E947C0360E083E00E940D038FE9AD
S11301F090E00E947C0381E080935B012FE788E319
S113020091E0215080409040E1F700C00000AFCF62
S113021010925D0110925B0161E081E00E94BE03D7
S113022062E081E00E94C2030E9468020E94890386
S11302308FEF8093630080936200809361000E943B
S11302405400C82F843120F480E00E9457060FC068
S11302508E3120F486E60E94570609C0883220F4C5
S113026083EB0E94570603C08FEF0E94570681E07C
S11302700E944D007C0162E080E00E94F304813022
S113028051F565E080E00E94F3048130F1F490912F
S11302905A0191111AC08FE39CE90197F1F700C04C
S11302A0000065E080E00E94F304813049F460E0DE
S11302B00E94C60390915C0181E0892780935C01D0
S11302C081E080935A01D1E055C081114EC0109253
S11302D05A01D1E04FC063E080E00E94F304813012
S11302E009F55F9B44C00E94DE06813321F08F3400
S11302F011F08F3649F460E081E00E94BE0381E092
S113030080935C01D2E036C0803321F0863411F052
S1130310863679F560E081E00E94C20310925C01A8
S1130320D2E028C064E080E00E94F3048130A9F4A4
S113033095EFE91691E0F90638F060E00E94C203F7
S113034010925C01D3E016C060E081E00E94BE031D
S113035081E080935C01D3E00DC060E081E00E9405
S1130360C20310925C01D0E005C0D1E003C0D2E02A
S113037001C0D2E066E080E00E94F304182F80916F
S11303806300C8130FC080916200D8130BC0909112
S11303905C0180916000981305C08091610018177A
S11303A009F483C060E080E00E940D0384EB90E0D8
S11303B00E947C038C2F90E00E948D0387EB90E0D9
S11303C00E947C0368E080E00E940D03C43128F49D
S11303D08AEB90E00E947C0312C0CE3128F483ECB7
S11303E090E00E947C030BC0C83228F48CEC90E0AF
S11303F00E947C0304C085ED90E00E947C0360E0D1
S113040081E00E940D03D13029F48EED90E00E942A
S11304107C0312C0D23029F48FEE90E00E947C035A
S11304200BC0D33029F480E091E00E947C0304C027
S113043081E191E00E947C0360E082E00E940D0370
S113044080915C01813029F482E291E00E947C0376
S113045004C089E291E00E947C0367E082E00E948C
S11304600D0380E391E00E947C03C7010E948D0389
S11304708EE191E00E947C0360E083E00E940D0322
S1130480113029F485E391E00E947C0304C086E4E2
S113049091E00E947C03C0936300D093620080913A
S11304A05C0180936000109361008FE295E70197EF
S11304B0F1F700C000005BCE41E064E081E00E94FF
S11304C00D04089541E064E081E00E9480040895F1
S11304D040E064E081E00E948004089541E061E02E
S11304E082E00E94800482E08A95F1F700C040E037
S11304F061E082E00E9480048FE99FE00197F1F7B8
S113050000C000000895CF93C82F40E060E082E06F
S11305100E9480044C2F441F4427441F65E082E05E
S11305200E948004C6FB442740F964E082E00E94F4
S11305308004C5FB442740F963E082E00E94800404
S1130540C4FB442740F962E082E00E9480040E94D8
S11305506E02C3FB442740F965E082E00E948004F8
S1130560C2FB442740F964E082E00E948004C1FB9E
S1130570442740F963E082E00E9480044C2F4170DC
S113058062E082E00E9480040E946E02CF9108958E
S1130590CF93C82F41E060E082E00E948004C4FB56
S11305A0442740F962E082E00E948004C5FB4427AE
S11305B040F963E082E00E948004C6FB442740F9CE
S11305C064E082E00E9480044C2F441F4427441FAF
S11305D065E082E00E9480040E946E024C2F41700C
S11305E062E082E00E948004C1FB442740F963E09A
S11305F082E00E948004C2FB442740F964E082E068
S11306000E948004C3FB442740F965E082E00E9415
S113061080040E946E02CF910895813059F028F031
S1130620823069F0833081F0089580E8860F0E945B
S11306308302089580EC860F0E948302089584E962
S1130640860F0E948302089584ED860F0E94830220
S1130650089541E060E082E00E940D0441E061E021
S113066082E00E940D0441E062E082E00E940D04F9
S113067041E063E082E00E940D0441E064E082E036
S11306800E940D0441E065E082E00E940D048FE2C7
S113069095E70197F1F700C0000083E00E94830210
S11306A08FE097E20197F1F700C0000083E00E9419
S11306B0830287EC90E00197F1F700C0000083E02B
S11306C00E94830282E00E94830288E20E948302E5
S11306D08CE00E94830260E080E00E940D0381E0D0
S11306E00E9483028FE493EC0197F1F700C00000AD
S11306F008950E94C8020895CF93DF93EC0103C0CC
S11307000E947903219688818111FACFDF91CF91DC
S1130710089581E00E94830208950F931F93CF935D
S1130720DF93CDB7DEB727970FB6F894DEBF0FBEC1
S1130730CDBF9F938F9387E591E09F938F938E0115
S11307400F5F1F4F1F930F930E941607C8010E944B
S11307507C030F900F900F900F900F900F9027969F
S11307600FB6F894DEBF0FBECDBFDF91CF911F91BE
S11307700F91089541E00E940D04089541E00E9404
S11307808004089540E00E94800408950E94210599
S1130790089587B1806487B987B18F7787B987B1A6
S11307A08F7D87B986B1816086B986B1826086B94A
S11307B086B1846086B986B18F7786B986B1877F22
S11307C086B986B1806186B986B1806886B9089594
S11307D097B1907E97B997B1892B87B9089586B15F
S11307E0806486B908950E94EF03349BFECF86B1DE
S11307F0806186B984B195B10895813041F028F0C3
S1130800823039F0833039F008956ABB089567BBAC
S1130810089564BB089561BB0895683008F06FC003
S11308204130A1F5813089F028F08230C9F083305D
S113083011F108952AB381E090E002C0880F991F56
S11308406A95E2F7822B8ABB089527B381E090E092
S113085002C0880F991F6A95E2F7822B87BB08951F
S113086024B381E090E002C0880F991F6A95E2F7F3
S1130870822B84BB089521B381E090E002C0880FED
S1130880991F6A95E2F7822B81BB0895411137C005
S1130890813091F028F08230D9F0833029F1089525
S11308A02AB381E090E002C0880F991F6A95E2F7AD
S11308B0809582238ABB089527B381E090E002C02B
S11308C0880F991F6A95E2F78095822387BB089564
S11308D024B381E090E002C0880F991F6A95E2F783
S11308E08095822384BB089521B381E090E002C007
S11308F0880F991F6A95E2F78095822381BB08953A
S1130900683008F06FC04130A1F5813089F028F0DB
S11309108230C9F0833011F108952BB381E090E067
S113092002C0880F991F6A95E2F7822B8BBB08954A
S113093028B381E090E002C0880F991F6A95E2F71E
S1130940822B88BB089525B381E090E002C0880F14
S1130950991F6A95E2F7822B85BB089522B381E043
S113096090E002C0880F991F6A95E2F7822B82BB40
S11309700895411137C0813091F028F08230D9F0C8
S1130980833029F108952BB381E090E002C0880FF1
S1130990991F6A95E2F7809582238BBB089528B34B
S11309A081E090E002C0880F991F6A95E2F7809574
S11309B0822388BB089525B381E090E002C0880FAC
S11309C0991F6A95E2F78095822385BB089522B327
S11309D081E090E002C0880F991F6A95E2F7809544
S11309E0822382BB0895813079F028F08230A9F007
S11309F08330E1F024C089B390E002C095958795D7
S1130A006A95E2F78170089586B390E002C09595E7
S1130A1087956A95E2F78170089583B390E002C0E8
S1130A20959587956A95E2F78170089580B390E073
S1130A3002C0959587956A95E2F78170089580E0E4
S1130A400895813089F028F08230C9F0833011F1A3
S1130A5008952BB381E090E002C0880F991F6A9536
S1130A60E2F782278BBB089528B381E090E002C0AF
S1130A70880F991F6A95E2F7822788BB089525B3EA
S1130A8081E090E002C0880F991F6A95E2F78227FF
S1130A9085BB089522B381E090E002C0880F991FBE
S1130AA06A95E2F7822782BB0895CF93C62F8130DF
S1130AB0F1F018F08230A9F147C040E062E083E031
S1130AC00E940D04C11107C085B78E7F85BF85B70D
S1130AD0826085BF08C0C13031F485B7816085BFAD
S1130AE085B7826085BF8BB780648BBF2DC040E023
S1130AF063E083E00E940D04C11107C085B78B7FBA
S1130B0085BF85B7886085BF08C0C13031F485B71B
S1130B10846085BF85B7886085BF8BB780688BBFCD
S1130B2013C040E062E081E00E940D04C11104C0E2
S1130B3084B78F7B84BF05C0C13019F484B7806447
S1130B4084BF8BB780628BBFCF9108950097A1F0CB
S1130B50613049F018F0623059F0089590935F01C4
S1130B6080935E01089590936101809360010895DC
S1130B70909363018093620108951F920F920FB6C0
S1130B800F9211242F933F934F935F936F937F930F
S1130B908F939F93AF93BF93EF93FF93E0915E0185
S1130BA0F0915F010995FF91EF91BF91AF919F91F2
S1130BB08F917F916F915F914F913F912F910F9002
S1130BC00FBE0F901F9018951F920F920FB60F92A1
S1130BD011242F933F934F935F936F937F938F933E
S1130BE09F93AF93BF93EF93FF93E0916001F091D4
S1130BF061010995FF91EF91BF91AF919F918F9101
S1130C007F916F915F914F913F912F910F900FBE04
S1130C100F901F9018951F920F920FB60F921124E8
S1130C202F933F934F935F936F937F938F939F93F0
S1130C30AF93BF93EF93FF93E0916201F09163014F
S1130C400995FF91EF91BF91AF919F918F917F9102
S1130C506F915F914F913F912F910F900FBE0F9025
S1130C601F9018958FB780688FBF089583B7877FCB
S1130C7083BF83B78F7B83BF83B78F7D83BF83B7E6
S1130C808F7E83BF12BE1CBE88B7816088BF89B7C0
S1130C90816089BF8FB780688FBF89B78D7F89BF17
S1130CA083B7887F83BF83B7826083BF08958CBF77
S1130CB008951F920F920FB60F9211242F933F9312
S1130CC04F935F936F937F938F939F93AF93BF9350
S1130CD0EF93FF93E0916601F0916701309709F07B
S1130CE00995FF91EF91BF91AF919F918F917F9162
S1130CF06F915F914F913F912F910F900FBE0F9085
S1130D001F9018951F920F920FB60F9211242F93D4
S1130D103F934F935F936F937F938F939F93AF937F
S1130D20BF93EF93FF93E0916801F09169013097CD
S1130D3009F0099580916401909165010196909361
S1130D40650180936401FF91EF91BF91AF919F91F1
S1130D508F917F916F915F914F913F912F910F9060
S1130D600FBE0F901F901895A0E0B0E0880F991F58
S1130D70AA1FBB1F880F991FAA1FBB1F9C01AD018F
S1130D80220F331F441F551F220F331F441F551FAB
S1130D9060E072E18AE790E00E94E50621503109A3
S1130DA08BB18D7F8BB930BD29B98AB188608AB97E
S1130DB08AB180618AB986E880BD08955F9BFECFC1
S1130DC08BB180688BB98CB10895A1E21A2EAA1B4D
S1130DD0BB1BFD010DC0AA1FBB1FEE1FFF1FA217E7
S1130DE0B307E407F50720F0A21BB30BE40BF50BE4
S1130DF0661F771F881F991F1A9469F7609570956D
S1130E00809590959B01AC01BD01CF010895A29FEF
S1130E10B001B39FC001A39F700D811D1124911DCA
S1130E20B29F700D811D1124911D0895AEE0B0E0B4
S1130E30ECE1F7E00C94D7090D891E8986E08C83D8
S1130E401A8309838FEF9FE79E838D83AE01475EEC
S1130E505F4F6F89788DCE0101960E943807EF812C
S1130E60F885E00FF11F10822E96E4E00C94F3094C
S1130E70ABE0B0E0EEE3F7E00C94C9096C017B0150
S1130E808A01FC0117821682838181FFCCC1CE01C5
S1130E9001963C01F6019381F70193FD859193FF3F
S1130EA081917F01882309F4BAC1853239F493FD15
S1130EB0859193FF81917F01853229F4B60190E0F9
S1130EC00E942F09E7CF912C212C312CFFE1F3153F
S1130ED0D8F08B3279F038F4803279F08332A1F48F
S1130EE0232D20611DC08D3261F0803369F4232DE0
S1130EF0216016C0832D8260382EE32DE4603E2EDF
S1130F002AC0F32DF8601DC037FC2DC020ED280F3A
S1130F102A3040F08E32B9F436FC81C1232D20648E
S1130F20322E19C036FE06C08AE0989E200D112488
S1130F30922E11C0EAE02E9E200D1124222EF32DB4
S1130F40F0623F2E08C08C3621F4832D8068382E41
S1130F5002C0883641F4F70193FD859193FF819196
S1130F607F018111B3CF982F9F7D9554933028F43E
S1130F700C5F1F4F9FE399830DC0833631F0833795
S1130F8071F0833509F059C021C0F801808189834B
S1130F900E5F1F4F88248394912C530113C02801A2
S1130FA0F2E04F0E511CF801A080B18036FE03C060
S1130FB0692D70E002C06FEF7FEFC5010E94240924
S1130FC04C018201F32DFF773F2E16C0280122E049
S1130FD0420E511CF801A080B18036FE03C0692D79
S1130FE070E002C06FEF7FEFC5010E9419094C0148
S1130FF0F32DF0683F2E820133FC1BC0822D90E05C
S113100088169906B0F4B60180E290E00E942F0998
S11310102A94F4CFF50137FC859137FE81915F0165
S1131020B60190E00E942F0921102A9421E0821A2F
S113103091088114910471F7E8C0843611F089365F
S113104041F5F80137FE07C0608171818281938187
S11310500C5F1F4F08C060817181072E000C880B44
S1131060990B0E5F1F4FF32DFF763F2E97FF09C09C
S113107090958095709561957F4F8F4F9F4FF06845
S11310803F2E2AE030E0A3010E946B09882E8618C7
S113109045C0853731F4232D2F7EB22E2AE030E06F
S11310A025C0932D997FB92E8F36C1F018F4883559
S11310B079F0B5C0803719F0883721F0B0C0E92F36
S11310C0E061BE2EB4FE0DC0FB2DF460BF2E09C03E
S11310D034FE0AC0292F2660B22E06C028E030E074
S11310E005C020E130E002C020E132E0F801B7FEA3
S11310F007C060817181828193810C5F1F4F06C09C
S11311006081718180E090E00E5F1F4FA3010E9417
S11311106B09882E8618FB2DFF773F2E36FE0DC0F7
S1131120232D2E7FA22E891458F434FE0BC032FCDA
S113113009C0832D8E7EA82E05C0B82CA32C03C015
S1131140B82C01C0B92CA4FE0FC0FE01E80DF11D9E
S11311508081803321F49A2D997EA92E09C0A2FEA4
S113116006C0B394B39404C08A2D867809F0B3946E
S1131170A3FC11C0A0FE06C0B21488F4280C922C63
S11311809B180EC0B21460F4B60180E290E00E9495
S11311902F09B394F7CFB21418F42B1802C0982C6B
S11311A0212CA4FE10C0B60180E390E00E942F0918
S11311B0A2FE17C0A1FC03C088E790E002C088E546
S11311C090E0B6010CC08A2D867859F0A1FE02C0C9
S11311D08BE201C080E2A7FC8DE2B60190E00E94A0
S11311E02F09891438F4B60180E390E00E942F0996
S11311F09A94F7CF8A94F301E80DF11D8081B6012A
S113120090E00E942F098110F5CF222009F442CEEC
S1131210B60180E290E00E942F092A94F6CFF601ED
S11312208681978102C08FEF9FEF2B96E2E10C94A9
S1131230E509FC010590615070400110D8F78095D4
S113124090958E0F9F1F0895FC016150704001908E
S11312500110D8F7809590958E0F9F1F08950F93D6
S11312601F93CF93DF93FB01238121FD03C08FEFF5
S11312709FEF2CC022FF16C04681578124813581FF
S11312804217530744F4A081B1819D012F5F3F4F62
S1131290318320838C93268137812F5F3F4F37839F
S11312A0268314C08B01EC01FB010084F185E02D41
S11312B00995892BE1F6D80116968D919C91179783
S11312C0019617969C938E931697CE01DF91CF913A
S11312D01F910F910895FA01AA27283051F1203166
S11312E081F1E8946F936E7F6E5F7F4F8F4F9F4FB6
S11312F0AF4FB1E03ED0B4E03CD0670F781F891FF8
S11313009A1FA11D680F791F8A1F911DA11D6A0FC5
S1131310711D811D911DA11D20D009F468943F9178
S11313202AE0269F11243019305D3193DEF6CF0177
S11313300895462F4770405D4193B3E00FD0C9F73D
S1131340F6CF462F4F70405D4A3318F0495D31FDAA
S11313504052419302D0A9F7EACFB4E0A6959795FD
S1131360879577956795BA95C9F7009761057105D3
S113137008959B01AC010A2E06945795479537951D
S11313802795BA95C9F7620F731F841F951FA01D77
S113139008952F923F924F925F926F927F928F9215
S11313A09F92AF92BF92CF92DF92EF92FF920F93F0
S11313B01F93CF93DF93CDB7DEB7CA1BDB0B0FB6FA
S11313C0F894DEBF0FBECDBF09942A8839884888B7
S11313D05F846E847D848C849B84AA84B984C8844D
S11313E0DF80EE80FD800C811B81AA81B981CE0F44
S11313F0D11D0FB6F894DEBF0FBECDBFED01089529
S1071400F894FFCF8A
S1131404FFFFFFFF2A20454D455247454E435921CE
S113141420202A20002020414C41524D205452497E
S11314244747455245442120200046495245202F30
S113143420474153204445544543544544200045E2
S11314445641435541544520544845204152454151
S113145421202000543A0043200046616E3A204F74
S113146446460046616E3A203430250046616E3AA1
S1131474203730250046616E3A31303025004D6FF7
S113148464653A204D616E75616C20535720004D9C
S11314946F64653A20425420436F6E74726F6C001B
S11314A44D6F64653A20546F726368204C44522033
S11314B4004D6F64653A205374616E646279202030
S11314C420004C3A4F4E2020004C3A4F4646200010
S11314D44C44523A005261696E3A205261696E6911
S11314E46E6721202000576561746865723A204351
S10D14F46C6561722020002564007D
S9030000FC
